:020000040800F2
:1000000000070020CD010008E70E0008710E00086F
:10001000E50E00083F040008CF10000800000000B3
:10002000000000000000000000000000ED0E0008CD
:100030004104000800000000E90E0008F10E00086D
:10004000E9010008E9010008E9010008E9010008E8
:10005000E9010008E9010008E9010008E9010008D8
:10006000E9010008E9010008E9010008E9010008C8
:10007000E9010008E9010008E9010008E9010008B8
:10008000E9010008E9010008E9010008E9010008A8
:10009000E9010008E9010008E9010008E901000898
:1000A000E9010008E9010008E9010008E901000888
:1000B000E9010008E9010008E9010008E901000878
:1000C000E9010008E9010008E9010008E901000868
:1000D000E9010008E9010008E9010008E901000858
:1000E000E9010008E9010008E9010008E901000848
:1000F000E9010008E9010008E9010008E901000838
:10010000E9010008E9010008E9010008E901000827
:10011000E9010008E9010008E9010008E901000817
:10012000E9010008E9010008E9010008E901000807
:1001300000F002F800F03AF80AA090E8000C8244BF
:100140008344AAF10107DA4501D100F02FF8AFF29C
:10015000090EBAE80F0013F0010F18BFFB1A43F0A5
:1001600001031847201F0000401F0000103A24BF61
:1001700078C878C1FAD8520724BF30C830C144BF0C
:1001800004680C607047000000230024002500264E
:10019000103A28BF78C1FBD8520728BF30C148BFEA
:1001A0000B6070471FB51FBD10B510BD00F00EF9F4
:1001B0001146FFF7F7FF01F0D9FB00F02CF903B46B
:1001C000FFF7F2FF03BC00F033F900000A48804754
:1001D0000A4872B60047FEE7FEE7FEE7FEE7FEE7E5
:1001E000FEE7FEE7FEE7FEE7FEE7000004480549FC
:1001F000054A064B70470000530F00083101000804
:100200000001002000070020000300200003002060
:1002100072B64B4B4FF0FF021A60006880F30988FA
:100220008E464848016841F0806101604FF002004D
:1002300080F3148862B6704772B643490968434A2E
:100240001268434800680068816342634149096855
:100250000868B0E8F00F80F309884FF0020080F3DF
:10026000148862B670471EF0040F0CBFEFF30880CD
:10027000EFF30980816911F8021C002902D00129DD
:1002800002D0704720E07047D6E7704762B600DFC3
:10029000704762B601DF704772B62F484FF0000119
:1002A00001602E49416081604FF00701016062B634
:1002B000704772B6704762B6704772B621484FF009
:1002C0008051016062B6704772B6EFF3098020E991
:1002D000F00F1F49096808601E4909680868B0E8FE
:1002E000F00F80F309884FF0020080F3148862B6A3
:1002F00070471B48016801F0F901016030BF704789
:100300001848016841F080710160704716484FF04D
:100310000001016070471548016841F0010101606A
:1003200070471248016821F00101016070470E48D2
:10033000006870470E480F490844704700BF00002E
:1003400023ED00E004ED00E0480000204C00002018
:100350003C0000204000002010E000E040190100B7
:1003600010ED00E0FCED00E0041000E0001000E003
:1003700000030020000400004FF0000200B5134607
:1003800094469646203922BFA0E80C50A0E80C50B5
:10039000B1F12001BFF4F7AF090728BFA0E80C5066
:1003A00048BF0CC05DF804EB890028BF40F8042B5F
:1003B00008BF704748BF20F8022B11F0804F18BFCC
:1003C00000F8012B7047704770477047754600F082
:1003D0002BF8AE4605006946534620F007008546D7
:1003E00018B020B5FFF702FFBDE820404FF000062F
:1003F0004FF000074FF000084FF0000B21F007010D
:10040000AC46ACE8C009ACE8C009ACE8C009ACE84F
:10041000C0098D46704710B50446AFF300802046F2
:10042000BDE81040FFF7CBBE004870479C0000209D
:1004300001491820ABBEFEE7260002007047FEE728
:10044000704700002DE9F84FDFF8C8910024A9F1AA
:10045000040B23460F2709F1040AABF1040ED1E087
:100460000125A54006EA0502AA4276D1DFF8A8C117
:100470004E68A6EB0C0866452BD00DDC032E34D05D
:1004800005DC36B3012E19D0022E2FD11BE0112E20
:1004900016D0122E2AD119E0B8F5881F19D006DC23
:1004A000B8F5803F15D0B8F5801F1FD111E0B8F521
:1004B000001F0ED0B8F5041F18D10AE0CB6815E074
:1004C000CB681B1D12E0CB6808330FE0CB680C3300
:1004D0000CE08B682BB1012B4FF0080303D0456172
:1004E00004E0042302E0056100E00023FF2A01D8B4
:1004F000064601E000F104064FEA840501D9A5F1A2
:100500002005D6F8008007FA05FC28EA0C0803FA53
:1005100005F548EA0508C6F800804D68ED0070D57D
:100520003E4DAE6946F00106AE61AD6924F00306AA
:1005300005F0010500953A4D06EB050CDCF8085076
:10054000A607360F07FA06F825EA0805DFF8D48073
:10055000404503D14FF0000825E052E0DFF8C880A5
:10056000404502D14FF001081DE0DFF8C080404552
:1005700002D14FF0020816E0DFF8B480404502D106
:100580004FF003080FE0DFF8AC80404502D14FF098
:10059000040808E0DFF8A080404502D14FF00508CC
:1005A00001E04FF0060808FA06F848EA0508CCF81A
:1005B00008804D68D9F80060ED024D4601D516431C
:1005C00000E096432E604D68DAF80060AD025546B3
:1005D00001D5164300E096432E604D68DBF80060BD
:1005E000AD035D4601D5164300E096432E604D688D
:1005F000DEF80060ED03754601D5164300E0964332
:100600002E60641C0A681646E2407FF429AFBDE8FC
:10061000F88F000008040140000011100010024093
:100620000000014000080140000C014000100140A2
:100630000014014000180140001C0140C26821EA7A
:1006400002030A4043EA0241016170470AB10161B5
:1006500070470904FBE7000001488068704700000C
:10066000000000202DE9F041FFF723FE1C4801683F
:100670001C4A1278114401601B4E1C4D1C4F3068FF
:100680004FF00008401C30602C6814E094F82110F2
:10069000022902D1616A0844E0612968084600F035
:1006A000EBFE286084F80C802146386800F0FEFEDE
:1006B00038602C681CB1E16930688142E6D000F0F6
:1006C0004BFD0C4938680968884202D100F096FD5C
:1006D00001E0FFF7F2FDBDE8F041FFF7ECBD0000DF
:1006E00008000020000000205000002034000020FE
:1006F0003000002038000020074810B5016841F0A4
:1007000010010160032000F067F80F2000F006F8E8
:1007100000F024F8002010BD0020024070B50D4DFF
:1007200004464FF47A712878B1FBF0F00A49096861
:10073000B1FBF0F000F0CEFA48B9102C07D200223D
:100740002146501E00F028F800206C6070BD01208A
:1007500070BD0000000000200C0000200C4808B50F
:10076000816941F001018161816901F0010100911C
:10077000C16941F08051C161C06900F080500090B2
:100780000448416821F0E06141F00071416008BD1A
:100790000010024000000140F0B40E4B1B680C46F4
:1007A000C3F30223C3F10705042D00D90425191D45
:1007B000072901D2002300E0DB1E012606FA05F11D
:1007C000491E214099409E40761E16403143F0BCA0
:1007D00000F07EBC0CED00E0064900F0070208685E
:1007E0004FF6FF03184040EA0220034A1043086016
:1007F000704700000CED00E00000FA052DE9F0471D
:100800000F46050061D0434E306800F00700B84243
:1008100009D2306820F0070038433060306800F0BB
:100820000700B84251D128683B4C810712D54007D8
:1008300003D5606840F4E06060602878000703D565
:10084000606840F4605060606068A96820F0F00063
:10085000084360602878C00728D06868012810D055
:100860002168022810D0890700292EDA616821F05A
:10087000030101436160FFF7EFFE804641F28839D2
:100880000DE021688903EFE78901EDE7FFF7E4FE5A
:10089000A0EB0801494502D90320BDE8F087606854
:1008A000696800F00C00B0EB810FEFD1306800F008
:1008B0000700B8420BD9306820F007003843306099
:1008C000306800F00700B84201D00120E5E7287841
:1008D000400705D56068E96820F4E060084360607F
:1008E0002878000706D56068296920F4605040EA3E
:1008F000C100606000F038F86168084AC1F3031174
:10090000515CC8400649086006480068FFF706FFCA
:100910000020C2E700200240001002406C200008C6
:100920000C000020040000200448054900684968C4
:10093000044AC1F30221515CC84070470C000020FA
:10094000001002407C2000080448054900684968FE
:10095000044AC1F3C221515CC84070470C0000201A
:10096000001002407C2000080E4A51680E4801F039
:100970000C03042B11D0082B0FD10C48C1F3834377
:10098000C903C05C0AD55168084AC1F34041921EB0
:10099000515C054A5043B0FBF1F0704704494843AD
:1009A000704700000010024000127A005C2000082E
:1009B00000093D002DE9F84F040070D02078C04DAB
:1009C000C00749D06868C0F38100012807D0686873
:1009D000C0F38100022809D16868C00306D52868E1
:1009E000800339D560680028E7D035E06068B0F54D
:1009F000803F0BD010B1B0F5A02F11D0286820F4A3
:100A000080302860286820F4802002E0286840F4C4
:100A100080302860606890B1FFF71EFE06460AE04D
:100A2000286840F480202860F0E700BFFFF714FE3C
:100A3000801B642873D828688003F7D50CE0FFF783
:100A40000BFE064605E000BFFFF706FE801B64288C
:100A5000F0D828688003F7D420789A4E80074FF0AA
:100A600001094FF0000839D5686810F00C0F07D065
:100A70006868C0F38100022809D16868C00306D401
:100A80002868800714D52069012808D110E0206962
:100A9000B0B1C6F80090FFF7DFFD074605E00AE1B8
:100AA000FFF7DAFDC01B0228C4D828688007F7D5F5
:100AB0002868616920F0F80040EAC10028600DE074
:100AC000C6F80080FFF7C8FD074604E0FFF7C4FD45
:100AD000C01B022823D828688007F7D42078000795
:100AE0002CD57948A169D9B1C0F80090FFF7B4FDC1
:100AF000074604E0FFF7B0FDC01B02280FD8686A64
:100B00008007F7D571484FF4FA510068B0FBF1F057
:100B1000009000BF0098411E0091FAD20EE080E0E4
:100B2000C0F80080FFF798FD074604E0FFF794FD4A
:100B3000C01B022875D8686A8007F7D42078400760
:100B400060D5E8690027C00008D4E86940F080500B
:100B5000E861E869012700F0805000905C48016876
:100B6000C90513D40168834641F480710160FFF721
:100B700073FD824606E000BFFFF76EFDA0EB0A00A2
:100B800064284ED8DBF80000C005F5D5E0680128E0
:100B90000AD008B1052813D0286A20F00100286285
:100BA000286A20F0040002E0286A40F00100286270
:100BB000E06841F2883B98B1FFF74EFD82460BE0BA
:100BC000286A40F004002862EEE700BFFFF744FD0A
:100BD000A0EB0A0159455AD8286A8007F6D50CE0DF
:100BE000FFF73AFD824605E0FFF736FDA0EB0A016C
:100BF00059454CD8286A8007F6D41FB1E86920F01F
:100C00008050E861E06988B36968C1F38101022915
:100C100044D00228C6F8608004D0FFF71DFD0446CA
:100C200038E034E0FFF718FD074604E0FFF714FD55
:100C3000C01B02282BD828688001F7D4206AB0F5A1
:100C4000803F05D16868A16820F4003008436860DF
:100C5000D4E908010843696821F474110843686005
:100C6000C6F86090FFF7F8FC044606E025E000BFF8
:100C7000FFF7F2FC001B022809D828688001F7D58D
:100C80001BE000BFFFF7E8FC001B022802D903208D
:100C9000BDE8F88F28688001F4D40EE00128F7D071
:100CA0006868226A00F48031914204D1616A00F4DC
:100CB0007010884201D00120EAE70020E8E7000038
:100CC0000010024000004242800442420C0000201A
:100CD0000070004010B5401EB0F1807F01D30120AC
:100CE00010BD4FF0E02460610F21601700F0F0F9B3
:100CF0000020A06107202061002010BD70B5040015
:100D000004D094F84100002510B106E0012070BD28
:100D100084F84050204600F023F8242084F8410055
:100D20002068C16821F40051C160204600F03AF902
:100D30002068016921F4904101612068416921F036
:100D40002A0141612068C16841F40051C1606564B5
:100D5000202084F8410084F842006563002070BDC3
:100D600030B585B000240094019402940394006887
:100D70001449884224D11448816941F48041816139
:100D8000816901F480410491816941F0040181612C
:100D900080690E4D00F0040004904FF40070009044
:100DA000022001900320039069462846FFF74AFB82
:100DB0002815CDE90004694628460294FFF742FB56
:100DC00005B030BD0038014000100240000801406D
:100DD0002DE9F843044690F84100984616460D4622
:100DE000202802D00220BDE8F88385B17EB1002022
:100DF0006064212084F84100FFF72EFCA684814620
:100E0000E684A0682027B0F5805F02D003E00120CF
:100E1000E9E7206910B12E4600250EE000260CE01F
:100E20008021204600F01AF9A8B9C6B116F8010BC6
:100E300021684860E08C401EE084E08C4B464FF017
:100E40000002CDF800800028EAD14FF04001204692
:100E500000F004F940B184F841700320C3E735F88D
:100E6000020BC0F30800E3E784F841700020BAE702
:100E7000FEE7000030B585B00024184800940194C6
:100E800002940394816941F020018161816901F03C
:100E900020010491816941F010018161816901F0B3
:100EA00010010491816941F00401816180690C4D58
:100EB00000F004000490012280212846FFF7C6FBC1
:100EC000802000900120CDE90104022003906946B2
:100ED0002846FFF7B7FA05B030BD00000010024009
:100EE00000100140FEE7FEE700F00CB900F02CB95D
:100EF000FFF7B8BB30B58FB028216846FFF73CFA42
:100F000014210AA8FFF738FA01210804CDE90010DE
:100F10000024029402250491CDE907504FF4E0101B
:100F200009906846FFF746FD08B172B6FEE70F204C
:100F3000CDE90A054FF48060CDE90C4002210AA8F2
:100F40000E94FFF75BFC002801D072B6FEE70FB0ED
:100F500030BD704701680C3151E8002F22F49072C7
:100F600041E80023002BF5D10168143151E8002F2E
:100F700022F0010241E80023002BF5D1016B012989
:100F800009D101680C3151E8002F22F0100241E82C
:100F90000023002BF5D1202180F8421000210163AD
:100FA0007047000070B5044600680169E26821F4EA
:100FB0004051114301612169A068084361690843F8
:100FC0002168CA6841F20C639A430243CA602068F0
:100FD0004169A26921F44071114341611E492068B1
:100FE000884202D1FFF7B0FC01E0FFF79DFC00EB67
:100FF000C00101EB0012606864218000B2FBF0F3D5
:10100000B3FBF1F36FF018067343B2FBF0F5B2FBDC
:10101000F0F605EB8305322303EB0515B5FBF1F57F
:10102000B6FBF1F605F0F00505EB0615B2FBF0F6A0
:10103000B2FBF0F0B0FBF1F06FF01802504306EB9A
:10104000800003EB0010B0FBF1F0216800F00F000E
:101050002844886070BD0000003801402DE9F84345
:10106000984617460D460446089E24E0701C22D080
:10107000FFF7F2FAA0EB0800B0421AD8CEB1206810
:10108000C168490717D5802D15D0402D13D00168B0
:10109000C94309070FD40168002540680090204625
:1010A000FFF758FF0820606484F840500120BDE835
:1010B000F8830320FBE72068006835EA000004D0CD
:1010C0000020B842D2D00020F1E70120F9E7FEE786
:1010D0000907090E002804DB00F1E02080F8001465
:1010E000704700F00F0000F1E02080F8141D7047F9
:1010F00090F8200091F82010401A7047C069C96923
:10110000401A704710B5FFF7D4F80C4A0A4800237C
:10111000116800680B7301230373094B14311960C4
:10112000084910601430086000F068F8FFF7C3F851
:10113000BDE81040FFF7C8B830000020380000209C
:101140003C0000204000002010B500F057F8BDE83A
:101150001040FFF788B8000070B51C481C4C0068B0
:10116000642808D12078012808D001202070FFF7DA
:10117000DEF8A06060602078012826D16078401CED
:10118000C0B26070642820D1A06800F007FE054658
:10119000FFF7CDF800F002FE294600F009FD0D4DE5
:1011A000294600F00FFE294600F0D8FE00F0C2FDEF
:1011B0000146606008A000F0CFF900206070FFF7E2
:1011C000B0F8BDE87040FFF7A1B870BD5000002036
:1011D000100000200000C8426A645F6370755F758C
:1011E0003A256425250D0A0010B5FFF789F8FFF7A9
:1011F0008DF8BDE81040FFF78EB800000748007872
:10120000012809D10648074900680968884201D1C8
:10121000FFF781B8FFF785B8704700001000002085
:10122000380000204400002070B5050023D0FFF7EF
:1012300040F8114C022021680873104800682844C7
:101240000F4DC861286800F017F90E4E286021681C
:10125000306800F02BF93060286801210A4A0173D8
:101260002168143111600949206014300860BDE81C
:101270007040FFF70BB870BD380000205000002010
:1012800030000020340000203C00002040000020FE
:1012900070B504002CD0FFF70CF8022004F8080CFD
:1012A00054F80C0C0025103C70B1017A02290BD1C6
:1012B000E168C2681144E160426822B10021204621
:1012C00000F028F900E06560206868B1017A022921
:1012D0000AD1C168E2681144C16062681AB1002194
:1012E00000F018F900E04560BDE87040FEF7E3BF8C
:1012F00070BD000070B515A000F02EF900F0A6F842
:10130000FFF772FF164C00257F2225604FF4007115
:101310001448656000F026FA60610100FDD0416963
:10132000104A4A6305732060A0600FA000F014F912
:1013300016A000F011F905A000F00EF96069094946
:101340001430FEF765FF012070BD00003D3D3D3DBE
:101350003D3D3D3D3D3D3D3D3D3D3D3D0D0A00009A
:1013600030000020991300086A646F73206861736D
:1013700020636F6D706C6574656420696E69746953
:10138000616C697A6174696F6E0D0A0057656C63F0
:101390006F6D65210D0A00004FF400750322294688
:1013A000104800F0DFF9104C206020B102224FF409
:1013B000BE7100F09BFA012229460C4800F0D2F9D8
:1013C0006060216809B100F075FA022229460848D8
:1013D00000F0C8F9A060216809B100F06BFAFEF7CF
:1013E00088FFFCE7AD1900081C000020B9190008AF
:1013F000D119000810B500281DD0134900F11002C2
:101400000C68217A022917D1E168914214D3012195
:101410002172E1680B1A102B0BD92118103B022006
:10142000CB610876E26062681031002A204600F045
:1014300071F804F1100010BD6468002CE1D1FEF7D2
:101440003AFF002010BD00002800002010B5FEF774
:1014500071FF074900224860086042600260086826
:10146000022202724968034A511AC160012010BD6C
:101470002800002000C0002070B50C46050007D0F1
:1014800034B10026AC4205D145684DB12E6007E06D
:10149000002070BDD4E9000232B1002100F03AF81A
:1014A00026602846666070BD4660F9E72DE9F04188
:1014B00005000E4605D014480068854206D1134F3A
:1014C00005E0002048600D4608600DE0104F2C46F6
:1014D00021463046B84700280EDC206838B1224645
:1014E0004FEA060100F016F82846BDE8F0813546BF
:1014F000224631460020F5E7606808B10446E7E778
:10150000002231462046EDE730000020F1100008AF
:10151000FD10000810B550EA020309D0002359B1AC
:1015200098B1AAB1C1E9000241601160012010BD6B
:10153000FEF7C1FE022010BD18B122B11260426058
:10154000F4E71360F2E74360F0E7C1E90032ECE74B
:101550004160C1E90003E9E70FB42DE9F04107ACB0
:101560006FF02F0754E025284DD1491C0026062591
:1015700033460846069106E006EB860207EB420278
:101580008E18401C06900178A1F13002092AF3D987
:1015900001782E2910D1401C00250146069006E056
:1015A00005EB850207EB42028518491C0691087875
:1015B000A0F13002092AF3D906980178302902D126
:1015C0000123401C06900078662829D00CDC622894
:1015D00045D004DC252816D0582814D133E06328E0
:1015E0000FD064280FD132E0732825D004DC6F2897
:1015F00031D0702807D126E0752828D0782802D16C
:1016000021E014F8040B00F0A6F80698401C0690A0
:10161000069908780028A6D1BDE8F0015DF814FB12
:10162000E41D24F00704F4E8020100F0DFF932467B
:10163000294600F019F8E8E701CC00F082F8E4E769
:1016400000F052F8E1E701CC32461021F8E701CC76
:1016500032460A21F4E701CC32460821F0E701CCFA
:1016600032460221ECE700002DE9F04117460D4615
:10167000044610F1FF4F04D32D2000F06CF884F0E5
:101680000044204600F056FB064600F06FFB214662
:1016900000F064FC04467A1B00230A213046521EE7
:1016A00000F022F82E2000F056F80026DFF83480F3
:1016B00013E04146204600F085FB074600F03AFB68
:1016C00004463030C0B200F046F8204600F04EFB31
:1016D000394600F043FC0446761CAE42E9DBBDE827
:1016E000F081000000002041F0B5002489B02746B9
:1016F000002801DA012740424FEA0D0590FBF1F680
:1017000001FB16060A2E01DA303600E0373690FB70
:10171000F1F02E55641C0028F0DC47B12D2129552D
:1017200004E00BB1302000E020202855641C9442D6
:10173000F7DB641E03D4285D00F00DF8F9E709B06B
:10174000F0BD10B5044602E0641C00F004F82078F7
:101750000028F9D110BD01B50121684600F0FCF860
:1017600008BD000070B5064615460C460846FFF752
:1017700041FE00281AD00022426086600260C0E963
:101780000602032101730119403921F00301C0E968
:101790000441074B4B6383688B634FF08073CB63CB
:1017A00080F8205080F8212080F8282070BD0000AB
:1017B000DD17000810B5040003D0074840698442D3
:1017C00001D1022010BD204600F048F82046FFF766
:1017D0005FFD012010BD00003000002070B51E4DDF
:1017E000AC68FEF766FDAFF20B06A068C5E9060619
:1017F00094F828000028204618D0FFF7DBFF00BF30
:10180000FEF757FD2169A0690844403820F0030025
:1018100060614663A16881634FF08071C1630220FB
:10182000207394F82100022803D007E000F016F896
:10183000E6E7D5E90101FFF739FE68601434EC6092
:10184000286801210173A86014302861FEF733FD78
:10185000BDE87040FEF71DBD3000002070B50400EB
:1018600003D0134D6869844201D1022070BD207BF2
:10187000032808D0FEF71DFD28680026A04204D1E9
:101880006068286006E0012070BD6868A04203D14E
:1018900060686860066004E0D4E900020021FFF798
:1018A00039FE0320207366602660FEF704FDEAE738
:1018B0003000002070B5040013D0FEF7FAFC0A4D8A
:1018C0000020207321462868FFF7F0FD2860A04221
:1018D00003D1FEF7F0FCFEF7F0FCFEF7ECFC012074
:1018E00070BD022070BD00003000002070B50D46B4
:1018F000040003D0012A03D0022A03D0022070BDC5
:10190000012000E0022084F82100FEF7D2FC0E48FE
:1019100065620E4900682844E06160694163207B8C
:10192000012800D028B90A4D21462868FFF7A4FDF8
:1019300028602146074C2068FFF7B8FD2060FEF7BD
:10194000BAFC012070BD000050000020DD17000827
:1019500030000020340000200A4601464FF0FF33DB
:101960000148FFF735BA000054000020FEF7C4FE1E
:10197000FFF7C0FAFFF77EFA0B480A490C22016014
:101980004FF4E131416000218160C160C0E904127F
:101990008161C161FFF7B2F908B172B6FEE7FFF7E6
:1019A000A9FCFEE7003801405400002080210148D6
:1019B000FEF744BE00100140044C80212046FEF793
:1019C0003DFE5020FFF730FCF7E70000001001401B
:1019D000054D4FF4A0742046FFF726FC80212846D1
:1019E000FEF72CFEF7E700000010014021F0004256
:1019F000A2F16052B2F5801F01F0004328BFD2F17E
:101A00007F6C0BD95FEA001C43EAC20242EB5070C4
:101A100018BF704728BF20F001007047B2F5801F43
:101A2000BCBF184670474FEA410C1CF5001F02D29C
:101A3000084600F08EBA70B500F009F80000008981
:101A4000FFF7F6BF4FF00040A0F5800070470EF1A1
:101A5000020E2EF0030E5EF8046B364205D4012A06
:101A600043EB030515F5001F12D8012841EB010CCB
:101A70001CF5001F0CD80ED14FEAD17C15F5001FC4
:101A80000CEB4C0C0CF1020C08BF4CEBD37C04E0CB
:101A90004FF0080C01E04FEAD37C0CEB4C0526FA22
:101AA00005F606F00706B6F1040C06D20EEB860C1E
:101AB000BDE870404CF0010C6047DFE80CF0090B0A
:101AC00002024FF000414FF00000A1F5002170BD6F
:101AD00019461046012851EB010418BFD4F5001433
:101AE00084BF002001F0004170BD000090EA010FAA
:101AF00048BF81F0004100F14282421A3CBF801A87
:101B000089184FEAD0524FF07F4C1CEA410FA2EBEC
:101B1000D15318BF9CEA026F00F03B804FF0004C9D
:101B20004CEA00204CEA012121FA03FC10EB0C0CDA
:101B30001ED202F1FF325FEA1C2040EBC25038BFD8
:101B400070471CF07F0F4FEA400C18BFBCF17F4F6D
:101B500038BF7047C3F12003994008BF20F001004F
:101B6000BCF17F4F38BF7047A0F1C04000F0F1B921
:101B70004FEA3C00000A40EBC25028BF1CF0FF0FA8
:101B80004FEA400CE6D018BFBCF17F4F38BF70471A
:101B9000EAE79CEA026F05D010EA5C0F08BF00F08C
:101BA0000040704710B500F08EF900BF64FBBE3EE8
:101BB0004FF47F0C1CEAD0121EBF1CEAD11392EA2C
:101BC0000C0F93EA0C0F00F0858090EA010F48BFDC
:101BD00042F4807240F4000C41F400002CF07F418C
:101BE00020F07F4000B58142A2EB03020FF2081CF7
:101BF000ACEB504EC0F100009EF800E04FEA4E0EF4
:101C000000FB0EFC38BF49004FEA2C1C02F5FA021B
:101C10000CFB0EF34FEACE1E4FEA112C4FEAC12106
:101C20000EEB635E42EB22420EFB0CFC4FEA1C53B0
:101C300000FB03114FEA112C4FEA01310EFB0CFCA3
:101C40004FEADC4C00FB0C11C14228BF09184CEBD9
:101C500003335DF804EB10EB410143EBC250B2F5E6
:101C60007C0F38BF704729D512F0F00F1CBF00F170
:101C7000C04000F0004070470081828384858687E1
:101C800088898B8C8D8E8F919293959697999A9C3B
:101C90009D9FA0A2A3A5A7A8AAACAEB0B2B3B5B7AA
:101CA000B9BCBEC0C2C5C7C9CCCED1D4D7D9DCDF80
:101CB000E2E6E9ECF0F3F7FAFE0000004FEA400C30
:101CC0000CF1807CBCF17E4F28BF7047B0F1C04062
:101CD00000F03FB990EA010F0CEAD11348BF42F47B
:101CE0008072624538BF634507D213F47F0F16D068
:101CF00080EA010000F00040704710B500F0E3F802
:101D0000097EFC3E00F005B880EA010000F00040CA
:101D1000704780EA010000F0004000F01AB912F4A8
:101D20007F0F04BF0248704780EA010000F011B93C
:101D30000000C07F41000B0ED3F19E0208D950F481
:101D400000034FEA032323FA02F048BF40427047E2
:101D500010B500F0B8F800BF499224800020704709
:101D60006FF0004282EA20007047000010F000414E
:101D700048BF4042B0FA80F310FA03F2C3F19D036A
:101D80000BD051EAC35101EB1220530638BF704704
:101D900000F1010008BF20F001007047B0FA80F3A5
:101DA00010FA03F2C3F19D030AD0D90501EB12200A
:101DB000530638BF704700F1010008BF20F0010052
:101DC000704700004FF47F0C1CEAD0121EBF1CEAC3
:101DD000D11392EA0C0F93EA0C0F00F0478090EABF
:101DE000010F48BF42F480724FF0004C4CEA0020D3
:101DF0004CEA012102EB0302A0FB0113A2F5000251
:101E0000002918BF43F001035B0028BF4FEA3303EA
:101E100042EB22425FEA132C4CEBC2502EBFBCEBCC
:101E2000436FB2F57C0F70474FEA036CBCF1004F73
:101E300008BF20F00100B2F57C0F38BF70470BD50A
:101E400082F0FF0212F5803FC8BF704700F1C0402A
:101E5000D8BF00F00040704700F5000C5FEA4C0C62
:101E600048BF7047B0F1C04000F073B890EA010F6E
:101E70000CEAD11348BF42F48072624538BF634513
:101E800004D280EA010000F00040704710B500F075
:101E90001AF800BF8900013E00F007B800F009B849
:101EA0005FEA410C5FEA1C6C08D080EA010000F098
:101EB00050B85FEA400C5FEA1C6CF6D14FF000406E
:101EC000A0F5800070470EF1020E2EF0030E5EF8B2
:101ED000044B244204D44FEA4102B2F17F4F11D89F
:101EE0004FEA4003B3F17F4F0CD80ED14FEAD07CBC
:101EF000B2F17F4F0CEB4C0C0CF1020C08BF4CEB19
:101F0000D17C04E04FF0080C01E04FEAD17C0CEBEF
:101F10004C0324FA03F404F00704B4F1040C06D2D1
:101F20000EEB840CBDE810404CF0010C6047DFE87C
:101F30000CF0070802024FF00040A0F5800010BD31
:101F40000846420018BFD2F1807288BF00F00040FE
:101F500010BDFF2141EAD050C005704780F000401D
:101F600090EA010F7FF5C9AD81F0004100F007B89C
:101F700090EA010F48BF81F000413FF5BEAD421A23
:101F800004D882F00042A0EB020011444FEAD05284
:101F90004FF07F4C1CEA410FA2EBD15318BF9CEAD3
:101FA000026F4AD04FF0004C4CEA00204CEA01216D
:101FB00021FA03FCB0EB0C0C0FD412F0FE0F36D05C
:101FC0005FEA4C001DD5001240EBC25038BF70478D
:101FD0001CF03F0F18BF70470BE0A2F101025FEA4F
:101FE0001C2040EBC25038BF70471CF07F0F18BF59
:101FF0007047C3F12003994014BF401E20F0010038
:10200000704780084FEA122308BF7047B0FA80FC7F
:10201000A2EB0C02CCF1280C60FA0CF093EA122F20
:1020200004BF00EBC25070474FEAC3707047130AF9
:102030005FEADC1008BF7047F6E79CEA026F04D045
:1020400010EA5C0F08BF0020704710B5FFF73BFF98
:1020500040DFF63E81F000407047010202030405B4
:10206000060708090A0B0C0D0E0F101000000000E7
:102070000000000001020304060708090000000038
:1020800001020304A4200008000000205400000006
:102090006C010008F820000854000020AC06000085
:1020A000880100080100000010000000000000008E
:1020B00000127A0000000000000000000000000094
:1020C0000000000000000000000000000000000010
:1020D0000000000000000000000000000000000000
:1020E00000000000000000000000000000000000F0
:0820F0000000000000000000E8
:0400000508000131BD
:00000001FF
