:020000040800F2
:10000000A8340020CD010008930C00081D0C000846
:10001000910C0008AF030008010D0008000000006B
:10002000000000000000000000000000990C000823
:10003000B103000800000000950C00089D0C0008AA
:10004000E9010008E9010008E9010008E9010008E8
:10005000E9010008E9010008E9010008E9010008D8
:10006000E9010008E9010008E9010008E9010008C8
:10007000E9010008E9010008E9010008E9010008B8
:10008000E9010008E9010008E9010008E9010008A8
:10009000E9010008E9010008E9010008E901000898
:1000A000E9010008E9010008E9010008E901000888
:1000B000E9010008E9010008E9010008E901000878
:1000C000E9010008E9010008E9010008E901000868
:1000D000E9010008E9010008E9010008E901000858
:1000E000E9010008E9010008E9010008E901000848
:1000F000E9010008E9010008E9010008E901000838
:10010000E9010008E9010008E9010008E901000827
:10011000E9010008E9010008E9010008E901000817
:10012000E9010008E9010008E9010008E901000807
:1001300000F002F800F03AF80AA090E8000C8244BF
:100140008344AAF10107DA4501D100F02FF8AFF29C
:10015000090EBAE80F0013F0010F18BFFB1A43F0A5
:1001600001031847B8100000D8100000103A24BF4F
:1001700078C878C1FAD8520724BF30C830C144BF0C
:1001800004680C607047000000230024002500264E
:10019000103A28BF78C1FBD8520728BF30C148BFEA
:1001A0000B6070471FB51FBD10B510BD00F0C6F83D
:1001B0001146FFF7F7FF01F005F800F0E4F803B48B
:1001C000FFF7F2FF03BC00F0EBF800000A4880479D
:1001D0000A4872B60047FEE7FEE7FEE7FEE7FEE7E5
:1001E000FEE7FEE7FEE7FEE7FEE7000004480549FC
:1001F000054A064B70470000FF0C0008310100085B
:10020000A8200020A8340020A8300020A83000201A
:1002100072B62E4B4FF0FF021A60006885468E467C
:1002200062B6704772B62A4909682A4A12682A4893
:100230000068006881634263284909680868B0E87B
:10024000F00F854662B670471EF0040F0CBFEFF347
:100250000880EFF30980816911F8021C002902D09F
:10026000012902D0704721E07047DBE7704762B692
:1002700000DF704762B601DF704772B618484FF072
:100280000001016040F2FF31416081604FF00701E1
:10029000016062B6704772B6704762B6704772B658
:1002A00010484FF08051016062B6704772B66846E0
:1002B00020E9F00F084909680860084909680868DA
:1002C000B0E8F00F854662B6704700BF23ED00E04E
:1002D0002400002028000020180000201C0000201E
:1002E00010E000E004ED00E04FF0000200B513461E
:1002F00094469646203922BFA0E80C50A0E80C5046
:10030000B1F12001BFF4F7AF090728BFA0E80C50F6
:1003100048BF0CC05DF804EB890028BF40F8042BEF
:1003200008BF704748BF20F8022B11F0804F18BF5C
:1003300000F8012B7047704770477047754600F012
:100340002BF8AE4605006946534620F00700854667
:1003500018B020B5FFF74AFFBDE820404FF0000677
:100360004FF000074FF000084FF0000B21F007019D
:10037000AC46ACE8C009ACE8C009ACE8C009ACE8E0
:10038000C0098D46704710B50446AFF30080204683
:10039000BDE81040FFF713BF00487047442000201D
:1003A00001491820ABBEFEE7260002007047FEE7B9
:1003B0007047000070B5044600F018F90546601C4F
:1003C00002D004480078044400F010F9401BA04219
:1003D000FAD370BD340000202DE9F84FDFF8C89142
:1003E0000024A9F1040B23460F2709F1040AABF1FD
:1003F000040ED1E00125A54006EA0502AA4276D105
:10040000DFF8A8C14E68A6EB0C0866452BD00DDCC2
:10041000032E34D005DC36B3012E19D0022E2FD195
:100420001BE0112E16D0122E2AD119E0B8F5881F24
:1004300019D006DCB8F5803F15D0B8F5801F1FD164
:1004400011E0B8F5001F0ED0B8F5041F18D10AE06E
:10045000CB6815E0CB681B1D12E0CB6808330FE0BA
:10046000CB680C330CE08B682BB1012B4FF00803E9
:1004700003D0456104E0042302E0056100E00023AD
:10048000FF2A01D8064601E000F104064FEA840580
:1004900001D9A5F12005D6F8008007FA05FC28EA65
:1004A0000C0803FA05F548EA0508C6F800804D680F
:1004B000ED0070D53E4DAE6946F00106AE61AD6906
:1004C00024F0030605F0010500953A4D06EB050CF6
:1004D000DCF80850A607360F07FA06F825EA0805E3
:1004E000DFF8D480404503D14FF0000825E052E00A
:1004F000DFF8C880404502D14FF001081DE0DFF869
:10050000C080404502D14FF0020816E0DFF8B48009
:10051000404502D14FF003080FE0DFF8AC804045C2
:1005200002D14FF0040808E0DFF8A080404502D176
:100530004FF0050801E04FF0060808FA06F848EA0F
:100540000508CCF808804D68D9F80060ED024D46EA
:1005500001D5164300E096432E604D68DAF800603E
:10056000AD02554601D5164300E096432E604D6816
:10057000DBF80060AD035D4601D5164300E096430D
:100580002E604D68DEF80060ED03754601D5164318
:1005900000E096432E60641C0A681646E2407FF431
:1005A00029AFBDE8F88F00000804014000001110D9
:1005B000001002400000014000080140000C014012
:1005C000001001400014014000180140001C0140CF
:1005D000C26821EA02030A4043EA0241016170470E
:1005E0000AB1016170470904FBE700000148806817
:1005F000704700003400002070B513480168134AAA
:10060000127811440160124D124E2868401C286077
:10061000346810E094F82110022902D1616A08447C
:10062000E0613168084600F085FC3060204600F04B
:1006300089FD34681CB1E16928688142EAD0BDE8CF
:100640007040FFF72CBE00003C000020340000206A
:100650002C00002010000020074810B5016841F070
:1006600010010160032000F067F80F2000F006F889
:1006700000F024F8002010BD0020024070B50D4DA0
:1006800004464FF47A712878B1FBF0F00A49096802
:10069000B1FBF0F000F0AEFA48B9102C07D20022FE
:1006A0002146501E00F028F800206C6070BD01202B
:1006B00070BD000034000020400000200C4808B548
:1006C000816941F001018161816901F001010091BD
:1006D000C16941F08051C161C06900F08050009053
:1006E0000448416821F0E06141F00071416008BDBB
:1006F0000010024000000140F0B40E4B1B680C4695
:10070000C3F30223C3F10705042D00D90425191DE5
:10071000072901D2002300E0DB1E012606FA05F1BD
:10072000491E214099409E40761E16403143F0BC40
:1007300000F0E7BA0CED00E0064900F00702086897
:100740004FF6FF03184040EA0220034A10430860B6
:10075000704700000CED00E00000FA052DE9F047BD
:100760000F46050061D0434E306800F00700B842E4
:1007700009D2306820F0070038433060306800F05C
:100780000700B84251D128683B4C810712D5400779
:1007900003D5606840F4E06060602878000703D506
:1007A000606840F4605060606068A96820F0F00004
:1007B000084360602878C00728D06868012810D0F6
:1007C0002168022810D0890700292EDA616821F0FB
:1007D000030101436160FFF709FF804641F2883958
:1007E0000DE021688903EFE78901EDE7FFF7FEFEE1
:1007F000A0EB0801494502D90320BDE8F0876068F5
:10080000696800F00C00B0EB810FEFD1306800F0A8
:100810000700B8420BD9306820F007003843306039
:10082000306800F00700B84201D00120E5E72878E1
:10083000400705D56068E96820F4E060084360601F
:100840002878000706D56068296920F4605040EADE
:10085000C100606000F018F86168084AC1F3031134
:10086000515CC8400649086006480068FFF706FF6B
:100870000020C2E700200240001002400A120008D7
:1008800040000020380000200E4A51680E4801F058
:100890000C03042B11D0082B0FD10C48C1F3834358
:1008A000C903C05C0AD55168084AC1F34041921E91
:1008B000515C054A5043B0FBF1F07047044948438E
:1008C000704700000010024000127A00FA11000880
:1008D00000093D002DE9F84F040070D02078C04D8C
:1008E000C00749D06868C0F38100012807D0686854
:1008F000C0F38100022809D16868C00306D52868C2
:10090000800339D560680028E7D035E06068B0F52D
:10091000803F0BD010B1B0F5A02F11D0286820F483
:1009200080302860286820F4802002E0286840F4A5
:1009300080302860606890B1FFF758FE06460AE0F4
:10094000286840F480202860F0E700BFFFF74EFEE3
:10095000801B642873D828688003F7D50CE0FFF764
:1009600045FE064605E000BFFFF740FE801B6428F9
:10097000F0D828688003F7D420789A4E80074FF08B
:1009800001094FF0000839D5686810F00C0F07D046
:100990006868C0F38100022809D16868C00306D4E2
:1009A0002868800714D52069012808D110E0206943
:1009B000B0B1C6F80090FFF719FE074605E00AE15E
:1009C000FFF714FEC01B0228C4D828688007F7D59B
:1009D0002868616920F0F80040EAC10028600DE055
:1009E000C6F80080FFF702FE074604E0FFF7FEFDB1
:1009F000C01B022823D828688007F7D42078000776
:100A00002CD57948A169D9B1C0F80090FFF7EEFD67
:100A1000074604E0FFF7EAFDC01B02280FD8686A0A
:100A20008007F7D571484FF4FA510068B0FBF1F038
:100A3000009000BF0098411E0091FAD20EE080E0C5
:100A4000C0F80080FFF7D2FD074604E0FFF7CEFDB7
:100A5000C01B022875D8686A8007F7D42078400741
:100A600060D5E8690027C00008D4E86940F08050EC
:100A7000E861E869012700F0805000905C48016857
:100A8000C90513D40168834641F480710160FFF702
:100A9000ADFD824606E000BFFFF7A8FDA0EB0A000F
:100AA00064284ED8DBF80000C005F5D5E0680128C1
:100AB0000AD008B1052813D0286A20F00100286266
:100AC000286A20F0040002E0286A40F00100286251
:100AD000E06841F2883B98B1FFF788FD82460BE061
:100AE000286A40F004002862EEE700BFFFF77EFDB1
:100AF000A0EB0A0159455AD8286A8007F6D50CE0C0
:100B0000FFF774FD824605E0FFF770FDA0EB0A01D8
:100B100059454CD8286A8007F6D41FB1E86920F0FF
:100B20008050E861E06988B36968C1F381010229F6
:100B300044D00228C6F8608004D0FFF757FD044671
:100B400038E034E0FFF752FD074604E0FFF74EFDC2
:100B5000C01B02282BD828688001F7D4206AB0F582
:100B6000803F05D16868A16820F4003008436860C0
:100B7000D4E908010843696821F4741108436860E6
:100B8000C6F86090FFF732FD044606E025E000BF9E
:100B9000FFF72CFD001B022809D828688001F7D533
:100BA0001BE000BFFFF722FD001B022802D9032033
:100BB000BDE8F88F28688001F4D40EE00128F7D052
:100BC0006868226A00F48031914204D1616A00F4BD
:100BD0007010884201D00120EAE70020E8E7000019
:100BE00000100240000042428004424240000020C7
:100BF0000070004010B5401EB0F1807F01D301208D
:100C000010BD4FF0E02460610F21601700F079F80B
:100C10000020A06107202061002010BDFEE7000039
:100C200030B585B0002418480094019402940394D0
:100C3000816941F020018161816901F02001049105
:100C4000816941F010018161816901F01001049115
:100C5000816941F00401816180690C4D00F004005C
:100C60000490012280212846FFF7BAFC80200090E2
:100C70000120CDE901040220039069462846FFF7D0
:100C8000ABFB05B030BD0000001002400010014079
:100C9000FEE7FEE700F050B800F068B8FFF7ACBC24
:100CA00030B58FB028216846FFF71EFB14210AA833
:100CB000FFF71AFB01210804CDE90010002402947B
:100CC00002250491CDE907504FF4E01009906846E1
:100CD000FFF700FE08B172B6FEE70F20CDE90A0566
:100CE0004FF48060CDE90C4002210AA80E94FFF772
:100CF00035FD002801D072B6FEE70FB030BD704759
:100D0000FEE70907090E002804DB00F1E02080F867
:100D10000014704700F00F0000F1E02080F8141D6F
:100D2000704790F9200091F92010401A7047C0696F
:100D3000C969401A70470000094A08480023116831
:100D400000680B7301230373064B143119600649C5
:100D5000106014300860FFF7A9BA00000C000020F2
:100D600014000020180000201C000020FFF76CBABF
:100D700070B5050023D0FFF78EFA114C02202168D0
:100D800008731048006828440F4DC861286800F0B7
:100D9000D1F80E4E28602168306800F0E5F8306028
:100DA000286801210A4A0173216814311160094938
:100DB000206014300860BDE87040FFF758BA70BD7D
:100DC000140000202C0000200C0000201000002047
:100DD000180000201C00002070B5A0F110040220B3
:100DE00020726068002570B1017A02290BD1E16898
:100DF000C2681144E160426822B10021204600F03F
:100E0000E7F800E06560206800280ED0017A02292A
:100E10000BD1C168E2681144C160626822B1BDE8CB
:100E20007040002100F0D4B8456070BD70B500F08E
:100E300071F80C4C00257F2225604FF400710A48A0
:100E4000656000F0E5F860610100FDD04169064A87
:100E50004A6305732060A06011461430FFF7D8F98B
:100E6000012070BD0C0000206D0E00084FF40075CD
:100E700003222946104800F0CBF8104C206018B12E
:100E80000122C82100F06EF9012229460C4800F029
:100E9000BFF86060216809B100F054F902222946C8
:100EA000084800F0B5F8A060216809B100F04AF9DF
:100EB0006420FFF77FFAFBE7D9110008000000204B
:100EC000E5110008F1110008114910B50C6800F196
:100ED0001002217A022915D1E168914212D3E36808
:100EE0002118181A1038C8610220087601202072D3
:100EF000E26062681031002A204600F069F804F1CF
:100F0000100010BD6468002CE3D1002010BD00006B
:100F1000300000200649054808600021416001605A
:100F2000022101720903C1600120704744000020C2
:100F30003000002070B50C46050007D034B1002603
:100F4000AC4205D145684DB12E6007E0002070BD70
:100F5000D4E9000232B1002100F03AF826602846B8
:100F6000666070BD4660F9E72DE9F04105000E4668
:100F700005D014480068854206D1134F05E00020D3
:100F800048600D4608600DE0104F2C462146304663
:100F9000B84700280EDC206838B122464FEA060127
:100FA00000F016F82846BDE8F08135462246314665
:100FB0000020F5E7606808B10446E7E70022314603
:100FC0002046EDE70C000020230D00082F0D00083F
:100FD00050EA020309D0002349B188B19AB1C1E9AE
:100FE000000241601160012070470220704718B173
:100FF00022B112604260F6E71360F4E74360F2E763
:10100000C1E90032EEE74160C1E90003EBE700000F
:1010100070B5064615460C460846FFF755FF0028F2
:1010200018D00022426086600260C0E906020321F7
:10103000017301194439C0E90441074B4B638368CC
:101040008B634FF08073CB6380F8205080F82120B1
:1010500080F8282070BD00008510000810B504003D
:1010600003D007484069844201D1022010BD2046C8
:1010700000F040F82046FFF7AFFE012010BD000051
:101080000C00002070B51A4DAC68AFF20706A068DE
:10109000C5E9060694F828000028204613D0FFF77B
:1010A000DDFF2169A0690844443860614663A16896
:1010B00081634FF08071C1630220207394F8210096
:1010C000022803D007E000F015F8EAE7D5E90101AE
:1010D000FFF74AFF68601434EC602868012101734F
:1010E000A86014302861BDE87040FFF7C3B8000065
:1010F0000C00002030B5040003D0114841698C4237
:1011000001D1022030BD217B032906D001680025D2
:10111000A14204D16168016006E0012030BD416850
:10112000A14203D1616841600D6004E0D4E900028E
:101130000021FFF74DFF0320207365602560ECE779
:101140000C00002010B548B10021054C0173014688
:101150002068FFF709FF2060012010BD022010BDAC
:101160000C00002070B5040003D0012A03D0022A2D
:1011700003D0022070BD012000E0022084F821008D
:101180000C48616200680844E06160690A49416393
:10119000207B012800D028B9084D21462868FFF798
:1011A000C9FE28602146064C2068FFF7DDFE20605E
:1011B000012070BD2C000020851000080C000020CC
:1011C00010000020FFF748FAFFF76AFDFFF728FD3F
:1011D000FFF72CFEFEE7000080210148FFF7F8B979
:1011E000001001404FF4FA742046FFF7C1FDFBE701
:1011F0006420FFF7BDFDFBE70102020304050607BB
:1012000008090A0B0C0D0E0F101000000000000062
:101210000000010203040607080900003C12000850
:1012200000000020440000006C010008801200084B
:101230004400002064340000880100080000000021
:10124000000000000000000000000000000000009E
:10125000000000000000000000000000000000008E
:10126000000000000000000000000000000000007E
:1012700001000000100000000000000000127A00D1
:0400000508000131BD
:00000001FF
