:020000040800F2
:10000000F0340020CD0100085F0E0008E90D000863
:100010005D0E0008EB030008471000080000000018
:10002000000000000000000000000000650E000855
:10003000ED03000800000000610E0008690E0008D2
:10004000E9010008E9010008E9010008E9010008E8
:10005000E9010008E9010008E9010008E9010008D8
:10006000E9010008E9010008E9010008E9010008C8
:10007000E9010008E9010008E9010008E9010008B8
:10008000E9010008E9010008E9010008E9010008A8
:10009000E9010008E9010008E9010008E901000898
:1000A000E9010008E9010008E9010008E901000888
:1000B000E9010008E9010008E9010008E901000878
:1000C000E9010008E9010008E9010008E901000868
:1000D000E9010008E9010008E9010008E901000858
:1000E000E9010008E9010008E9010008E901000848
:1000F000E9010008E9010008E9010008E901000838
:10010000E9010008E9010008E9010008E901000827
:10011000E9010008E9010008E9010008E901000817
:10012000E9010008E9010008E9010008E901000807
:1001300000F002F800F03AF80AA090E8000C8244BF
:100140008344AAF10107DA4501D100F02FF8AFF29C
:10015000090EBAE80F0013F0010F18BFFB1A43F0A5
:1001600001031847BC1B0000DC1B0000103A24BF31
:1001700078C878C1FAD8520724BF30C830C144BF0C
:1001800004680C607047000000230024002500264E
:10019000103A28BF78C1FBD8520728BF30C148BFEA
:1001A0000B6070471FB51FBD10B510BD00F0E4F81F
:1001B0001146FFF7F7FF01F0E7FA00F002F903B488
:1001C000FFF7F2FF03BC00F009F900000A4880477E
:1001D0000A4872B60047FEE7FEE7FEE7FEE7FEE7E5
:1001E000FEE7FEE7FEE7FEE7FEE7000004480549FC
:1001F000054A064B70470000CB0E0008310100088D
:10020000F0200020F0340020F0300020F0300020FA
:1002100072B63C4B4FF0FF021A60006880F3098809
:100220008E463948016841F0806101604FF002005C
:1002300080F3148862B6704772B634490968344A4C
:100240001268344800680068816342633249096873
:100250000868B0E8F00F80F309884FF0020080F3DF
:10026000148862B670471EF0040F0CBFEFF30880CD
:10027000EFF30980816911F8021C002902D00129DD
:1002800002D0704721E07047D6E7704762B600DFC2
:10029000704762B601DF704772B620484FF0000128
:1002A000016040F2FF31416081604FF00701016061
:1002B00062B6704772B6704762B6704772B612483F
:1002C0004FF08051016062B6704772B6EFF309805B
:1002D00020E9F00F0F49096808600F4909680868AC
:1002E000B0E8F00F80F309884FF0020080F3148823
:1002F00062B670470A48016801F0F901016030BF39
:10030000704700BF23ED00E004ED00E02400002072
:1003100028000020180000201C00002010E000E051
:1003200010ED00E04FF0000200B5134694469646EB
:10033000203922BFA0E80C50A0E80C50B1F12001F8
:10034000BFF4F7AF090728BFA0E80C5048BF0CC0A6
:100350005DF804EB890028BF40F8042B08BF704704
:1003600048BF20F8022B11F0804F18BF00F8012B76
:100370007047704770477047754600F02BF8AE46DF
:1003800005006946534620F00700854618B020B5A1
:10039000FFF72CFFBDE820404FF000064FF00007AC
:1003A0004FF000084FF0000B21F00701AC46ACE81D
:1003B000C009ACE8C009ACE8C009ACE8C0098D468A
:1003C000704710B50446AFF300802046BDE81040EA
:1003D000FFF7F5BE004870478C2000200149182027
:1003E000ABBEFEE7260002007047FEE77047000044
:1003F0002DE9F84FDFF8C8910024A9F1040B23463A
:100400000F2709F1040AABF1040ED1E00125A54044
:1004100006EA0502AA4276D1DFF8A8C14E68A6EB2B
:100420000C0866452BD00DDC032E34D005DC36B32A
:10043000012E19D0022E2FD11BE0112E16D0122E14
:100440002AD119E0B8F5881F19D006DCB8F5803F2D
:1004500015D0B8F5801F1FD111E0B8F5001F0ED0E0
:10046000B8F5041F18D10AE0CB6815E0CB681B1D56
:1004700012E0CB6808330FE0CB680C330CE08B68DC
:100480002BB1012B4FF0080303D0456104E0042396
:1004900002E0056100E00023FF2A01D8064601E0E2
:1004A00000F104064FEA840501D9A5F12005D6F82C
:1004B000008007FA05FC28EA0C0803FA05F548EA6B
:1004C0000508C6F800804D68ED0070D53E4DAE6958
:1004D00046F00106AE61AD6924F0030605F00105A2
:1004E00000953A4D06EB050CDCF80850A607360FD0
:1004F00007FA06F825EA0805DFF8D480404503D15D
:100500004FF0000825E052E0DFF8C880404502D1F6
:100510004FF001081DE0DFF8C080404502D14FF0E8
:10052000020816E0DFF8B480404502D14FF003081E
:100530000FE0DFF8AC80404502D14FF0040808E03E
:10054000DFF8A080404502D14FF0050801E04FF0F0
:10055000060808FA06F848EA0508CCF808804D684D
:10056000D9F80060ED024D4601D5164300E09643F0
:100570002E604D68DAF80060AD02554601D516438D
:1005800000E096432E604D68DBF80060AD035D46E9
:1005900001D5164300E096432E604D68DEF80060FA
:1005A000ED03754601D5164300E096432E60641CAA
:1005B0000A681646E2407FF429AFBDE8F88F0000D4
:1005C000080401400000111000100240000001402A
:1005D00000080140000C01400010014000140140DF
:1005E00000180140001C0140C26821EA02030A40D1
:1005F00043EA0241016170470AB101617047090491
:10060000FBE70000014880687047000034000020CC
:1006100070B513480168134A127811440160124DF5
:10062000124E2868401C2860346810E094F82110AD
:10063000022902D1616A0844E0613168084600F08D
:100640004DFE3060204601F055F834681CB1E16978
:1006500028688142EAD0BDE87040FFF72FBE000055
:100660003C000020340000202C000020100000205E
:10067000074810B5016841F010010160032000F047
:1006800067F80F2000F006F800F024F8002010BDF5
:100690000020024070B50D4D04464FF47A71287861
:1006A000B1FBF0F00A490968B1FBF0F000F0CEFAB6
:1006B00048B9102C07D200222146501E00F028F81D
:1006C00000206C6070BD012070BD0000340000206F
:1006D000400000200C4808B5816941F001018161AA
:1006E000816901F001010091C16941F08051C1614E
:1006F000C06900F0805000900448416821F0E0613A
:1007000041F00071416008BD00100240000001404E
:10071000F0B40E4B1B680C46C3F30223C3F107056C
:10072000042D00D90425191D072901D2002300E05A
:10073000DB1E012606FA05F1491E214099409E4024
:10074000761E16403143F0BC00F07EBC0CED00E09C
:10075000064900F0070208684FF6FF03184040EA18
:100760000220034A10430860704700000CED00E0CF
:100770000000FA052DE9F0470F46050061D0434E11
:10078000306800F00700B84209D2306820F0070056
:1007900038433060306800F00700B84251D1286813
:1007A0003B4C810712D5400703D5606840F4E060F8
:1007B00060602878000703D5606840F4605060608E
:1007C0006068A96820F0F000084360602878C007DE
:1007D00028D06868012810D02168022810D0890725
:1007E00000292EDA616821F0030101436160FFF7FF
:1007F00009FF804641F288390DE021688903EFE75F
:100800008901EDE7FFF7FEFEA0EB0801494502D99B
:100810000320BDE8F0876068696800F00C00B0EB69
:10082000810FEFD1306800F00700B8420BD9306873
:1008300020F0070038433060306800F00700B8420D
:1008400001D00120E5E72878400705D56068E96810
:1008500020F4E060084360602878000706D56068EF
:10086000296920F4605040EAC100606000F038F867
:100870006168084AC1F30311515CC8400649086029
:1008800006480068FFF706FF0020C2E7002002408C
:1008900000100240081D0008400000203800002021
:1008A0000448054900684968044AC1F30221515CC3
:1008B000C84070474000002000100240181D00088A
:1008C0000448054900684968044AC1F3C221515CE3
:1008D000C84070474000002000100240181D00086A
:1008E0000E4A51680E4801F00C03042B11D0082B5E
:1008F0000FD10C48C1F38343C903C05C0AD55168CA
:10090000084AC1F34041921E515C054A5043B0FB76
:10091000F1F070470449484370470000001002405E
:1009200000127A00F81C000800093D002DE9F84F7C
:10093000040070D02078C04DC00749D06868C0F36B
:100940008100012807D06868C0F38100022809D11E
:100950006868C00306D52868800339D56068002818
:10096000E7D035E06068B0F5803F0BD010B1B0F54E
:10097000A02F11D0286820F480302860286820F447
:10098000802002E0286840F480302860606890B1E0
:10099000FFF738FE06460AE0286840F48020286009
:1009A000F0E700BFFFF72EFE801B642873D828688D
:1009B0008003F7D50CE0FFF725FE064605E000BFF3
:1009C000FFF720FE801B6428F0D828688003F7D446
:1009D00020789A4E80074FF001094FF0000839D572
:1009E000686810F00C0F07D06868C0F38100022817
:1009F00009D16868C00306D42868800714D5206927
:100A0000012808D110E02069B0B1C6F80090FFF7C6
:100A1000F9FD074605E00AE1FFF7F4FDC01B0228D7
:100A2000C4D828688007F7D52868616920F0F800E5
:100A300040EAC10028600DE0C6F80080FFF7E2FD43
:100A4000074604E0FFF7DEFDC01B022823D8286814
:100A50008007F7D4207800072CD57948A169D9B14F
:100A6000C0F80090FFF7CEFD074604E0FFF7CAFD8F
:100A7000C01B02280FD8686A8007F7D571484FF469
:100A8000FA510068B0FBF1F0009000BF0098411EE1
:100A90000091FAD20EE080E0C0F80080FFF7B2FDCE
:100AA000074604E0FFF7AEFDC01B022875D8686A50
:100AB0008007F7D42078400760D5E8690027C00098
:100AC00008D4E86940F08050E861E869012700F047
:100AD000805000905C480168C90513D401688346C2
:100AE00041F480710160FFF78DFD824606E000BF92
:100AF000FFF788FDA0EB0A0064284ED8DBF8000061
:100B0000C005F5D5E06801280AD008B1052813D042
:100B1000286A20F001002862286A20F0040002E020
:100B2000286A40F001002862E06841F2883B98B1F1
:100B3000FFF768FD82460BE0286A40F00400286257
:100B4000EEE700BFFFF75EFDA0EB0A0159455AD85A
:100B5000286A8007F6D50CE0FFF754FD824605E0D1
:100B6000FFF750FDA0EB0A0159454CD8286A8007D1
:100B7000F6D41FB1E86920F08050E861E06988B3DD
:100B80006968C1F38101022944D00228C6F8608057
:100B900004D0FFF737FD044638E034E0FFF732FDBC
:100BA000074604E0FFF72EFDC01B02282BD828685B
:100BB0008001F7D4206AB0F5803F05D16868A1684C
:100BC00020F4003008436860D4E9080108436968EC
:100BD00021F4741108436860C6F86090FFF712FDB5
:100BE000044606E025E000BFFFF70CFD001B0228CD
:100BF00009D828688001F7D51BE000BFFFF702FD88
:100C0000001B022802D90320BDE8F88F2868800164
:100C1000F4D40EE00128F7D06868226A00F480312D
:100C2000914204D1616A00F47010884201D0012021
:100C3000EAE70020E8E7000000100240000042421E
:100C400080044242400000200070004010B5401E69
:100C5000B0F1807F01D3012010BD4FF0E02460612E
:100C60000F21601700F0F0F90020A061072020613B
:100C7000002010BD70B5040004D094F84100002598
:100C800010B106E0012070BD84F84050204600F00D
:100C900023F8242084F841002068C16821F4005121
:100CA000C160204600F03AF92068016921F49041C2
:100CB00001612068416921F02A0141612068C16811
:100CC00041F40051C1606564202084F8410084F83B
:100CD00042006563002070BD30B585B000240094EB
:100CE00001940294039400681449884224D1144862
:100CF000816941F480418161816901F480410491FD
:100D0000816941F00401816180690E4D00F00400A9
:100D100004904FF400700090022001900320039093
:100D200069462846FFF764FB2815CDE900046946AB
:100D300028460294FFF75CFB05B030BD0038014047
:100D400000100240000801402DE9F843044690F8E5
:100D50004100984616460D46202802D00220BDE8E4
:100D6000F88385B17EB100206064212084F84100C1
:100D7000FFF748FCA6848146E684A0682027B0F5EA
:100D8000805F02D003E00120E9E7206910B12E4620
:100D900000250EE000260CE08021204600F01AF924
:100DA000A8B9C6B116F8010B21684860E08C401E56
:100DB000E084E08C4B464FF00002CDF80080002824
:100DC000EAD14FF04001204600F004F940B184F828
:100DD00041700320C3E735F8020BC0F30800E3E7D6
:100DE00084F841700020BAE7FEE7000030B585B016
:100DF000002418480094019402940394816941F0FE
:100E000020018161816901F020010491816941F033
:100E100010018161816901F010010491816941F043
:100E20000401816180690C4D00F0040004900122EE
:100E300080212846FFF7E0FB802000900120CDE9CB
:100E400001040220039069462846FFF7D1FA05B055
:100E500030BD00000010024000100140FEE7FEE738
:100E600000F00CB900F024B9FFF7D2BB30B58FB059
:100E700028216846FFF756FA14210AA8FFF752FA0C
:100E800001210804CDE900100024029402250491F8
:100E9000CDE907504FF4E01009906846FFF746FD92
:100EA00008B172B6FEE70F20CDE90A054FF4806065
:100EB000CDE90C4002210AA80E94FFF75BFC002844
:100EC00001D072B6FEE70FB030BD704701680C313B
:100ED00051E8002F22F4907241E80023002BF5D155
:100EE0000168143151E8002F22F0010241E800238B
:100EF000002BF5D1016B012909D101680C3151E8B2
:100F0000002F22F0100241E80023002BF5D1202110
:100F100080F84210002101637047000070B504465C
:100F200000680169E26821F44051114301612169BF
:100F3000A0680843616908432168CA6841F20C63EC
:100F40009A430243CA6020684169A26921F4407152
:100F5000114341611E492068884202D1FFF7B0FC6D
:100F600001E0FFF79DFC00EBC00101EB001260689F
:100F700064218000B2FBF0F3B3FBF1F36FF01806CD
:100F80007343B2FBF0F5B2FBF0F605EB83053223B9
:100F900003EB0515B5FBF1F5B6FBF1F605F0F00531
:100FA00005EB0615B2FBF0F6B2FBF0F0B0FBF1F08A
:100FB0006FF01802504306EB800003EB0010B0FB0B
:100FC000F1F0216800F00F002844886070BD000037
:100FD000003801402DE9F843984617460D4604466F
:100FE000089E24E0701C22D0FFF70CFBA0EB080049
:100FF000B0421AD8CEB12068C168490717D5802DF4
:1010000015D0402D13D00168C94309070FD40168DA
:101010000025406800902046FFF758FF08206064D4
:1010200084F840500120BDE8F8830320FBE72068E6
:10103000006835EA000004D00020B842D2D0002079
:10104000F1E70120F9E7FEE70907090E002804DBB4
:1010500000F1E02080F80014704700F00F0000F16C
:10106000E02080F8141D704790F8200091F82010BF
:10107000401A7047C069C969401A7047094A084850
:101080000023116800680B7301230373064B1431AE
:1010900019600649106014300860FFF716B90000A7
:1010A0000C00002014000020180000201C0000206C
:1010B000FFF7D9B870B5050023D0FFF7FBF8114C46
:1010C0000220216808731048006828440F4DC86149
:1010D000286800F003F90E4E28602168306800F09F
:1010E00017F93060286801210A4A01732168143118
:1010F00011600949206014300860BDE87040FFF7B6
:10110000C5B870BD140000202C0000200C00002089
:1011100010000020180000201C00002070B5A0F175
:101120001004022020726068002570B1017A022943
:101130000BD1E168C2681144E160426822B100212C
:10114000204600F019F900E06560206800280ED004
:10115000017A02290BD1C168E2681144C16062685A
:1011600022B1BDE87040002100F006B9456070BDB5
:1011700070B514A000F01FF900F0A0F8164C00257F
:101180007F2225604FF400711448656000F018FA62
:1011900060610100FDD04169104A4A630573206017
:1011A000A0600FA000F007F916A000F004F905A058
:1011B00000F001F9606909491430FFF729F80120AE
:1011C00070BD00003D3D3D3D3D3D3D3D3D3D3D3D16
:1011D0003D3D3D3D0D0A00000C00002011120008AD
:1011E0006A646F732068617320636F6D706C6574DF
:1011F000656420696E697469616C697A6174696F8C
:101200006E0D0A0057656C636F6D65210D0A000055
:101210004FF4007503222946104800F0D1F9104C14
:10122000206020B102224FF4BE7100F073FA012257
:1012300029460C4800F0C4F96060216809B100F04B
:1012400059FA02222946084800F0BAF9A06021683C
:1012500009B100F04FFAFFF74DF8FCE7C917000895
:1012600000000020E917000811180008124910B505
:101270000C6800F11002217A022917D1E16891422D
:1012800014D301212172E1680B1A102B0BD92118FC
:10129000103B0220CB610876E26062681031002AC0
:1012A000204600F069F804F1100010BD6468002CBD
:1012B000E1D1002010BD00003000002006490548A3
:1012C0000860002141600160022101720903C160D0
:1012D00001207047440000203000002070B50C460B
:1012E000050007D034B10026AC4205D145684DB1A8
:1012F0002E6007E0002070BDD4E9000232B1002169
:1013000000F03AF826602846666070BD4660F9E74E
:101310002DE9F04105000E4605D0144800688542CD
:1013200006D1134F05E0002048600D4608600DE02F
:10133000104F2C4621463046B84700280EDC206866
:1013400038B122464FEA060100F016F82846BDE8FB
:10135000F0813546224631460020F5E7606808B145
:101360000446E7E7002231462046EDE70C00002066
:10137000691000087510000850EA020309D0002324
:1013800049B188B19AB1C1E9000241601160012000
:1013900070470220704718B122B112604260F6E730
:1013A0001360F4E74360F2E7C1E90032EEE7416021
:1013B000C1E90003EBE70FB42DE9F04107AC6FF092
:1013C0002F0754E025284DD1491C00260625334619
:1013D0000846069106E006EB860207EB42028E18ED
:1013E000401C06900178A1F13002092AF3D9017856
:1013F0002E2910D1401C00250146069006E005EB81
:10140000850207EB42028518491C06910878A0F175
:101410003002092AF3D906980178302902D1012334
:10142000401C06900078662829D00CDC622845D044
:1014300004DC252816D0582814D133E063280FD0B7
:1014400064280FD132E0732825D004DC6F2831D016
:10145000702807D126E0752828D0782802D121E00D
:1014600014F8040B00F0A5F80698401C06900699A5
:1014700008780028A6D1BDE8F0015DF814FBE41D52
:1014800024F00704F4E8020100F0D4F932462946BA
:1014900000F018F8E8E701CC00F081F8E4E700F08C
:1014A00051F8E1E701CC32461021F8E701CC324691
:1014B0000A21F4E701CC32460821F0E701CC32469C
:1014C0000221ECE72DE9F04117460D46044610F1E4
:1014D000FF4F04D32D2000F06CF884F00044204628
:1014E00000F08AFA064600F0A3FA214600F084FBD9
:1014F00004467A1B00230A213046521E00F022F8CF
:101500002E2000F056F80026DFF8348013E0414624
:10151000204600F0A5FA074600F06EFA0446303087
:10152000C0B200F046F8204600F082FA394600F0DA
:1015300063FB0446761CAE42E9DBBDE8F0810000A7
:1015400000002041F0B5002489B02746002801DAC8
:10155000012740424FEA0D0590FBF1F601FB16060C
:101560000A2E01DA303600E0373690FBF1F02E55C6
:10157000641C0028F0DC47B12D21295504E00BB193
:10158000302000E020202855641C9442F7DB641EC4
:1015900003D4285D00F00DF8F9E709B0F0BD10B5EF
:1015A000044602E0641C00F004F820780028F9D119
:1015B00010BD01B50121684600F0DCF808BD00004F
:1015C00070B5064615460C460846FFF74FFE002844
:1015D00018D00022426086600260C0E90602032142
:1015E000017301194439C0E90441074B4B63836817
:1015F0008B634FF08073CB6380F8205080F82120FC
:1016000080F8282070BD00003516000810B50400D1
:1016100003D007484069844201D1022010BD204612
:1016200000F040F82046FFF779FD012010BD0000D2
:101630000C00002070B51A4DAC68AFF20706A06828
:10164000C5E9060694F828000028204613D0FFF7C5
:10165000DDFF2169A0690844443860614663A168E0
:1016600081634FF08071C1630220207394F82100E0
:10167000022803D007E000F015F8EAE7D5E90101F8
:10168000FFF746FE68601434EC602868012101739E
:10169000A86014302861BDE87040FEF7FABD000074
:1016A0000C00002030B5040003D0114841698C4281
:1016B00001D1022030BD217B032906D0016800251D
:1016C000A14204D16168016006E0012030BD41689B
:1016D000A14203D1616841600D6004E0D4E90002D9
:1016E0000021FFF749FE0320207365602560ECE7C9
:1016F0000C00002010B548B10021054C01730146D3
:101700002068FFF705FE2060012010BD022010BDFB
:101710000C00002070B5040003D0012A03D0022A77
:1017200003D0022070BD012000E0022084F82100D7
:101730000C48616200680844E06160690A494163DD
:10174000207B012800D028B9084D21462868FFF7E2
:10175000C5FD28602146064C2068FFF7D9FD2060B2
:10176000012070BD2C000020351600080C00002060
:10177000100000200A4601464FF0FF330148FFF7F2
:10178000E3BA000044200020FEF772FFFFF76EFB73
:10179000FFF72CFB0B480A490C2201604FF4E131A2
:1017A000416000218160C160C0E904128161C161B2
:1017B000FFF760FA08B172B6FEE7FFF7D9FCFEE763
:1017C000003801404420002010B504A0FFF7F3FDCD
:1017D000BDE8104080210348FEF706BF7461736BBB
:1017E000310D0A0000100140064C4FF4967506A01A
:1017F000FFF7E1FD80212046FEF7F6FE2846FFF7C1
:1018000059FCF4E7001001407461736B320D0A005B
:10181000054C06A0FFF7CFFD6420FFF74BFC8021AD
:101820002046FEF7E1FEF4E7001001407461736B9F
:10183000330D0A0021F00042A2F16052B2F5801F80
:1018400001F0004328BFD2F17F6C0BD95FEA001C86
:1018500043EAC20242EB507018BF704728BF20F025
:1018600001007047B2F5801FBCBF184670474FEAB1
:10187000410C1CF5001F02D2084600F0B8B970B543
:1018800000F009F800000089FFF7F6BF4FF00040B4
:10189000A0F5800070470EF1020E2EF0030E5EF8E8
:1018A000046B364205D4012A43EB030515F5001FEE
:1018B00012D8012841EB010C1CF5001F0CD80ED1E9
:1018C0004FEAD17C15F5001F0CEB4C0C0CF1020C0F
:1018D00008BF4CEBD37C04E04FF0080C01E04FEA6A
:1018E000D37C0CEB4C0526FA05F606F00706B6F19C
:1018F000040C06D20EEB860CBDE870404CF0010CD7
:101900006047DFE80CF0090B02024FF000414FF096
:101910000000A1F5002170BD19461046012851EBC9
:10192000010418BFD4F5001484BF002001F0004169
:1019300070BD000090EA010F48BF81F0004100F146
:101940006C81421A3CBF801A89184FEAD0524FF07E
:101950007F4C1CEA410FA2EBD15318BF9CEA026FE7
:1019600000F03B804FF0004C4CEA00204CEA012193
:1019700021FA03FC10EB0C0C1ED202F1FF325FEADD
:101980001C2040EBC25038BF70471CF07F0F4FEA5D
:10199000400C18BFBCF17F4F38BF7047C3F1200324
:1019A000994008BF20F00100BCF17F4F38BF70475D
:1019B000A0F1C04000F01BB94FEA3C00000A40EB28
:1019C000C25028BF1CF0FF0F4FEA400CE6D018BFF2
:1019D000BCF17F4F38BF7047EAE79CEA026F05D041
:1019E00010EA5C0F08BF00F00040704710B500F02F
:1019F000B8F800BF64FBBE3E41000B0ED3F19E025F
:101A000008D950F400034FEA032323FA02F048BF39
:101A10004042704710B500F0A4F800BF49922480FE
:101A2000002070476FF0004282EA200070470000FB
:101A300010F0004148BF4042B0FA80F310FA03F2C0
:101A4000C3F19D030BD051EAC35101EB12205306A1
:101A500038BF704700F1010008BF20F00100704757
:101A60004FF47F0C1CEAD0121EBF1CEAD11392EA7D
:101A70000C0F93EA0C0F00F0478090EA010F48BF6B
:101A800042F480724FF0004C4CEA00204CEA0121F5
:101A900002EB0302A0FB0113A2F50002002918BF0C
:101AA00043F001035B0028BF4FEA330342EB2242BD
:101AB0005FEA132C4CEBC2502EBFBCEB436FB2F568
:101AC0007C0F70474FEA036CBCF1004F08BF20F059
:101AD0000100B2F57C0F38BF70470BD582F0FF02D2
:101AE00012F5803FC8BF704700F1C040D8BF00F07A
:101AF0000040704700F5000C5FEA4C0C48BF70478F
:101B0000B0F1C04000F073B890EA010F0CEAD113B5
:101B100048BF42F48072624538BF634504D280EA10
:101B2000010000F00040704710B500F01AF800BF47
:101B30008900013E00F007B800F009B85FEA410CE7
:101B40005FEA1C6C08D080EA010000F050B85FEA40
:101B5000400C5FEA1C6CF6D14FF00040A0F580000D
:101B600070470EF1020E2EF0030E5EF8044B244275
:101B700004D44FEA4102B2F17F4F11D84FEA40033B
:101B8000B3F17F4F0CD80ED14FEAD07CB2F17F4F2A
:101B90000CEB4C0C0CF1020C08BF4CEBD17C04E0BC
:101BA0004FF0080C01E04FEAD17C0CEB4C0324FA17
:101BB00003F404F00704B4F1040C06D20EEB840C19
:101BC000BDE810404CF0010C6047DFE80CF007085E
:101BD00002024FF00040A0F5800010BD0846420010
:101BE00018BFD2F1807288BF00F0004010BDFF2105
:101BF00041EAD050C005704780F0004090EA010FE4
:101C00007FF59FAE81F0004100F007B890EA010F28
:101C100048BF81F000413FF594AE421A04D882F0EB
:101C20000042A0EB020011444FEAD0524FF07F4C2B
:101C30001CEA410FA2EBD15318BF9CEA026F4AD0B5
:101C40004FF0004C4CEA00204CEA012121FA03FC41
:101C5000B0EB0C0C0FD412F0FE0F36D05FEA4C0044
:101C60001DD5001240EBC25038BF70471CF03F0F2B
:101C700018BF70470BE0A2F101025FEA1C2040EBA5
:101C8000C25038BF70471CF07F0F18BF7047C3F1B8
:101C90002003994014BF401E20F0010070478008C7
:101CA0004FEA122308BF7047B0FA80FCA2EB0C0287
:101CB000CCF1280C60FA0CF093EA122F04BF00EB71
:101CC000C25070474FEAC3707047130A5FEADC10D6
:101CD00008BF7047F6E79CEA026F04D010EA5C0F79
:101CE00008BF0020704710B5FFF73BFF40DFF63E0E
:101CF00081F000407047010202030405060708094D
:101D00000A0B0C0D0E0F1010000000000000000068
:101D10000102030406070809000000000102030491
:101D2000401D000800000020440000006C01000875
:101D3000841D000844000020AC3400008801000825
:101D40000000000000000000000000000000000093
:101D50000000000000000000000000000000000083
:101D60000000000000000000000000000000000073
:101D70000000000001000000100000000000000052
:041D800000127A00D3
:0400000508000131BD
:00000001FF
