:020000040800F2
:10000000A0340020CD0100087B0C0008050C00087E
:10001000790C000897030008E90C000800000000B4
:10002000000000000000000000000000810C00083B
:1000300099030008000000007D0C0008850C0008F2
:10004000E9010008E9010008E9010008E9010008E8
:10005000E9010008E9010008E9010008E9010008D8
:10006000E9010008E9010008E9010008E9010008C8
:10007000E9010008E9010008E9010008E9010008B8
:10008000E9010008E9010008E9010008E9010008A8
:10009000E9010008E9010008E9010008E901000898
:1000A000E9010008E9010008E9010008E901000888
:1000B000E9010008E9010008E9010008E901000878
:1000C000E9010008E9010008E9010008E901000868
:1000D000E9010008E9010008E9010008E901000858
:1000E000E9010008E9010008E9010008E901000848
:1000F000E9010008E9010008E9010008E901000838
:10010000E9010008E9010008E9010008E901000827
:10011000E9010008E9010008E9010008E901000817
:10012000E9010008E9010008E9010008E901000807
:1001300000F002F800F03AF80AA090E8000C8244BF
:100140008344AAF10107DA4501D100F02FF8AFF29C
:10015000090EBAE80F0013F0010F18BFFB1A43F0A5
:10016000010318476410000084100000103A24BFF7
:1001700078C878C1FAD8520724BF30C830C144BF0C
:1001800004680C607047000000230024002500264E
:10019000103A28BF78C1FBD8520728BF30C148BFEA
:1001A0000B6070471FB51FBD10B510BD00F0BAF849
:1001B0001146FFF7F7FF00F0BDFF00F0D8F803B4D9
:1001C000FFF7F2FF03BC00F0DFF800000A488047A9
:1001D0000A4872B60047FEE7FEE7FEE7FEE7FEE7E5
:1001E000FEE7FEE7FEE7FEE7FEE7000004480549FC
:1001F000054A064B70470000E70C00083101000873
:10020000A0200020A0340020A0300020A03000203A
:1002100072B62A4B4FF0FF021A60006885468E4680
:1002200062B6704772B6264909680868B0E8F00FF0
:10023000854662B670471EF0040F0CBFEFF30880CE
:10024000EFF30980816911F8021C002902D001290D
:1002500002D0704721E07047E4E7704762B600DFE4
:10026000704762B601DF704772B616484FF0000162
:10027000016040F2FF31416081604FF00701016091
:1002800062B6704772B6704762B6704772B60E4873
:100290004FF08051016062B6704772B6684620E93F
:1002A000F00F0A4909680860054909680868B0E85C
:1002B000F00F854662B6704700BF000023ED00E0F6
:1002C0001800002010E000E004ED00E02000002015
:1002D0004FF0000200B5134694469646203922BFDF
:1002E000A0E80C50A0E80C50B1F12001BFF4F7AF2A
:1002F000090728BFA0E80C5048BF0CC05DF804EB0C
:10030000890028BF40F8042B08BF704748BF20F879
:10031000022B11F0804F18BF00F8012B7047704777
:1003200070477047754600F02BF8AE4605006946E9
:10033000534620F00700854618B020B5FFF756FF5A
:10034000BDE820404FF000064FF000074FF00008D6
:100350004FF0000B21F00701AC46ACE8C009ACE857
:10036000C009ACE8C009ACE8C0098D46704710B5BB
:100370000446AFF300802046BDE81040FFF71FBFE2
:10038000004870473C20002001491820ABBEFEE722
:10039000260002007047FEE77047000070B5044673
:1003A00000F018F90546601C02D0044800780444A7
:1003B00000F010F9401BA042FAD370BD2C000020C1
:1003C0002DE9F84FDFF8C8910024A9F1040B23466A
:1003D0000F2709F1040AABF1040ED1E00125A54075
:1003E00006EA0502AA4276D1DFF8A8C14E68A6EB5C
:1003F0000C0866452BD00DDC032E34D005DC36B35B
:10040000012E19D0022E2FD11BE0112E16D0122E44
:100410002AD119E0B8F5881F19D006DCB8F5803F5D
:1004200015D0B8F5801F1FD111E0B8F5001F0ED010
:10043000B8F5041F18D10AE0CB6815E0CB681B1D86
:1004400012E0CB6808330FE0CB680C330CE08B680C
:100450002BB1012B4FF0080303D0456104E00423C6
:1004600002E0056100E00023FF2A01D8064601E012
:1004700000F104064FEA840501D9A5F12005D6F85C
:10048000008007FA05FC28EA0C0803FA05F548EA9B
:100490000508C6F800804D68ED0070D53E4DAE6988
:1004A00046F00106AE61AD6924F0030605F00105D2
:1004B00000953A4D06EB050CDCF80850A607360F00
:1004C00007FA06F825EA0805DFF8D480404503D18D
:1004D0004FF0000825E052E0DFF8C880404502D127
:1004E0004FF001081DE0DFF8C080404502D14FF019
:1004F000020816E0DFF8B480404502D14FF003084F
:100500000FE0DFF8AC80404502D14FF0040808E06E
:10051000DFF8A080404502D14FF0050801E04FF020
:10052000060808FA06F848EA0508CCF808804D687D
:10053000D9F80060ED024D4601D5164300E0964320
:100540002E604D68DAF80060AD02554601D51643BD
:1005500000E096432E604D68DBF80060AD035D4619
:1005600001D5164300E096432E604D68DEF800602A
:10057000ED03754601D5164300E096432E60641CDA
:100580000A681646E2407FF429AFBDE8F88F000004
:10059000080401400000111000100240000001405A
:1005A00000080140000C014000100140001401400F
:1005B00000180140001C0140C26821EA02030A4001
:1005C00043EA0241016170470AB1016170470904C1
:1005D000FBE7000001488068704700002C00002005
:1005E00070B513480168134A127811440160124D26
:1005F000124E2868401C2860306810E0617F022994
:1006000003D194F91E100844A0613168084600F037
:1006100093FC3060204600F07DFD306820B14468D6
:100620002868A1698142E9D0BDE87040FFF72EBE7D
:10063000340000202C0000202400002010000020A6
:10064000074810B5016841F010010160032000F077
:1006500067F80F2000F006F800F024F8002010BD25
:100660000020024070B50D4D04464FF47A71287891
:10067000B1FBF0F00A490968B1FBF0F000F0AEFA06
:1006800048B9102C07D200222146501E00F028F84D
:1006900000206C6070BD012070BD00002C000020A7
:1006A000380000200C4808B5816941F001018161E2
:1006B000816901F001010091C16941F08051C1617E
:1006C000C06900F0805000900448416821F0E0616A
:1006D00041F00071416008BD00100240000001407F
:1006E000F0B40E4B1B680C46C3F30223C3F107059D
:1006F000042D00D90425191D072901D2002300E08B
:10070000DB1E012606FA05F1491E214099409E4054
:10071000761E16403143F0BC00F0E7BA0CED00E065
:10072000064900F0070208684FF6FF03184040EA48
:100730000220034A10430860704700000CED00E0FF
:100740000000FA052DE9F0470F46050061D0434E41
:10075000306800F00700B84209D2306820F0070086
:1007600038433060306800F00700B84251D1286843
:100770003B4C810712D5400703D5606840F4E06028
:1007800060602878000703D5606840F460506060BE
:100790006068A96820F0F000084360602878C0070E
:1007A00028D06868012810D02168022810D0890755
:1007B00000292EDA616821F0030101436160FFF72F
:1007C00009FF804641F288390DE021688903EFE78F
:1007D0008901EDE7FFF7FEFEA0EB0801494502D9CC
:1007E0000320BDE8F0876068696800F00C00B0EB9A
:1007F000810FEFD1306800F00700B8420BD93068A4
:1008000020F0070038433060306800F00700B8423D
:1008100001D00120E5E72878400705D56068E96840
:1008200020F4E060084360602878000706D560681F
:10083000296920F4605040EAC100606000F018F8B7
:100840006168084AC1F30311515CC8400649086059
:1008500006480068FFF706FF0020C2E700200240BC
:1008600000100240B61100083800002030000020BF
:100870000E4A51680E4801F00C03042B11D0082BCE
:100880000FD10C48C1F38343C903C05C0AD551683A
:10089000084AC1F34041921E515C054A5043B0FBE7
:1008A000F1F07047044948437047000000100240CF
:1008B00000127A00A611000800093D002DE9F84F4A
:1008C000040070D02078C04DC00749D06868C0F3DC
:1008D0008100012807D06868C0F38100022809D18F
:1008E0006868C00306D52868800339D56068002889
:1008F000E7D035E06068B0F5803F0BD010B1B0F5BF
:10090000A02F11D0286820F480302860286820F4B7
:10091000802002E0286840F480302860606890B150
:10092000FFF758FE06460AE0286840F48020286059
:10093000F0E700BFFFF74EFE801B642873D82868DD
:100940008003F7D50CE0FFF745FE064605E000BF43
:10095000FFF740FE801B6428F0D828688003F7D496
:1009600020789A4E80074FF001094FF0000839D5E2
:10097000686810F00C0F07D06868C0F38100022887
:1009800009D16868C00306D42868800714D5206997
:10099000012808D110E02069B0B1C6F80090FFF737
:1009A00019FE074605E00AE1FFF714FEC01B022806
:1009B000C4D828688007F7D52868616920F0F80056
:1009C00040EAC10028600DE0C6F80080FFF702FE93
:1009D000074604E0FFF7FEFDC01B022823D8286865
:1009E0008007F7D4207800072CD57948A169D9B1C0
:1009F000C0F80090FFF7EEFD074604E0FFF7EAFDC0
:100A0000C01B02280FD8686A8007F7D571484FF4D9
:100A1000FA510068B0FBF1F0009000BF0098411E51
:100A20000091FAD20EE080E0C0F80080FFF7D2FD1E
:100A3000074604E0FFF7CEFDC01B022875D8686AA0
:100A40008007F7D42078400760D5E8690027C00008
:100A500008D4E86940F08050E861E869012700F0B7
:100A6000805000905C480168C90513D40168834632
:100A700041F480710160FFF7ADFD824606E000BFE2
:100A8000FFF7A8FDA0EB0A0064284ED8DBF80000B1
:100A9000C005F5D5E06801280AD008B1052813D0B3
:100AA000286A20F001002862286A20F0040002E091
:100AB000286A40F001002862E06841F2883B98B162
:100AC000FFF788FD82460BE0286A40F004002862A8
:100AD000EEE700BFFFF77EFDA0EB0A0159455AD8AB
:100AE000286A8007F6D50CE0FFF774FD824605E022
:100AF000FFF770FDA0EB0A0159454CD8286A800722
:100B0000F6D41FB1E86920F08050E861E06988B34D
:100B10006968C1F38101022944D00228C6F86080C7
:100B200004D0FFF757FD044638E034E0FFF752FDEC
:100B3000074604E0FFF74EFDC01B02282BD82868AB
:100B40008001F7D4206AB0F5803F05D16868A168BC
:100B500020F4003008436860D4E90801084369685C
:100B600021F4741108436860C6F86090FFF732FD05
:100B7000044606E025E000BFFFF72CFD001B02281D
:100B800009D828688001F7D51BE000BFFFF722FDD8
:100B9000001B022802D90320BDE8F88F28688001D5
:100BA000F4D40EE00128F7D06868226A00F480319E
:100BB000914204D1616A00F47010884201D0012092
:100BC000EAE70020E8E7000000100240000042428F
:100BD00080044242380000200070004010B5401EE2
:100BE000B0F1807F01D3012010BD4FF0E02460619F
:100BF0000F21601700F079F80020A0610720206124
:100C0000002010BDFEE7000030B585B00024184874
:100C10000094019402940394816941F02001816160
:100C2000816901F020010491816941F01001816125
:100C3000816901F010010491816941F00401816131
:100C400080690C4D00F004000490012280212846A8
:100C5000FFF7BAFC802000900120CDE901040220BA
:100C6000039069462846FFF7ABFB05B030BD000096
:100C70000010024000100140FEE7FEE700F050B80F
:100C800000F068B8FFF7ACBC30B58FB028216846DB
:100C9000FFF71EFB14210AA8FFF71AFB0121080425
:100CA000CDE900100024029402250491CDE90750FB
:100CB0004FF4E01009906846FFF700FE08B172B6E5
:100CC000FEE70F20CDE90A054FF48060CDE90C4026
:100CD00002210AA80E94FFF735FD002801D072B654
:100CE000FEE70FB030BD7047FEE70907090E002888
:100CF00004DB00F1E02080F80014704700F00F00E2
:100D000000F1E02080F8141D704790F91C0091F963
:100D10001C10401A704780698969401A70470000AA
:100D20000848094A00230068116840680B720123D3
:100D30000372064B103119600549106010300860CD
:100D4000FFF7ABBA0C0000201400002020000020A8
:100D500018000020FFF76FBA70B5050026D0FFF726
:100D600091FA134C02212068017212490968294442
:100D7000114D81610168286800F0DEF82860206864
:100D80000E4E0168306800F0F1F8306028680121EB
:100D90000B4A4068017221681031116009492060D6
:100DA00010300860BDE87040FFF758BA70BD000011
:100DB00014000020240000200C000020100000205F
:100DC000200000201800002070B5A0F114040220BB
:100DD0002073A068002580B14068017B02290CD1F6
:100DE0002169026911442161806828B142680021AB
:100DF000204600F0F1F800E0A5602068002810D03F
:100E00004068017B02290CD101692269114401610A
:100E1000A16829B14A68BDE87040002100F0DCB843
:100E2000856070BD70B500F077F80E4C00257F220C
:100E300025604FF400710C48656000F0EDF820610A
:100E40000100FDD00572416901F5FE710161016883
:100E5000486001682160A06003491030FFF7D8F9AD
:100E6000012070BD0C0000206D0E00084FF40075CD
:100E7000032229460F4800F0CFF80F4C206008B13C
:100E800000F048F9012229460C4800F0C5F86060DE
:100E9000216809B100F03EF902222946084800F015
:100EA000BBF8A060216809B100F034F96420FFF7B5
:100EB00075FAFBE7491100080000002061110008E5
:100EC0009D110008134910B50C6800F11402217B34
:100ED000022919D12169914216D323692118181AC0
:100EE00014384862143102204960087301202073CD
:100EF0002261A06808B1426800E00022204600F0AC
:100F00006BF804F1140010BDA16809B14C68DEE76C
:100F1000002010BD28000020064905480860002177
:100F2000C0E90101016002210173090301617047F9
:100F30003C0000202800002070B50C46050007D0BA
:100F400034B10026AC4205D185684DB12E6007E072
:100F5000002070BDA268206832B1002100F03CF88A
:100F600026602846A66070BD8660F9E72DE9F0414D
:100F700004000E4605D015480068844206D1144F7F
:100F800005E0002088600C4608600FE0114FD6F89D
:100F90000480254640466968B84700280EDC28686A
:100FA00038B12A464FEA060100F016F82046BDE89F
:100FB000F08134462A4631460020F5E7A86808B19A
:100FC0000546E7E7002231462846EDE70C00002001
:100FD0000B0D0008170D000850EA020309D000238A
:100FE00049B188B19AB18A600860816011600120BE
:100FF00070470220704718B122B112608260F6E794
:101000001360F4E78360F2E70B608A60EEE78160CB
:101010008B600860EBE7000070B5064614460D468D
:101020000846FFF74FFF00281ED0002200F12001E4
:101030008262C0E900160262C0E905020321017262
:1010400041194439C0E903510A624A628A62074B76
:10105000CA62C1E90C2343688B634FF08073CB6392
:10106000047701684860427770BD0000991000085D
:1010700010B5040003D007480069844201D1022062
:1010800010BD204600F01AF82046FFF79DFE012013
:1010900010BD00000C00002010B5074CA068FFF741
:1010A000E7FF2068012140680172A0601030E06015
:1010B000BDE81040FFF7D5B80C00002030B50400A3
:1010C00003D013490869844201D1022030BD207A3F
:1010D000032807D020680A680025904204D1806860
:1010E000086006E0012030BD4A68904203D1806864
:1010F0004860056004E0826800680021FFF76CFF2B
:10110000032020722068856020680560EAE70000FF
:101110000C00002010B548B10021054C0172016897
:101120002068FFF723FF2060012010BD022010BDC2
:101130000C000020FFF784FAFFF7A6FDFFF764FD1F
:10114000FFF770FEFEE7000010B56420FFF704FE15
:10115000BDE8104080210148FFF72EBA0010014081
:101160000B4D0C4C4FF4FA766F1580212846FFF793
:1011700023FA3046FFF7F0FD032239460648FFF711
:101180004BFF20600028F0D0FFF7C4FFEDE7000020
:101190000010014000000020491100086420FFF702
:1011A000DBFDFBE7010202030405060708090A0B41
:1011B0000C0D0E0F101000000000000000000102D6
:1011C0000304060708090000E811000800000020D9
:1011D0003C0000006C010008241200083C000020C4
:1011E00064340000880100080000000000000000D6
:1011F00000000000000000000000000000000000EF
:1012000000000000000000000000000000000000DE
:1012100000000000010000001000000000000000BD
:0412200000127A003E
:0400000508000131BD
:00000001FF
